S01400004E6F6E5365637572654170702E737265635D
S1138000202600206581000061810000618100005C
S1138010000000000000000000000000000000005C
S1138020000000000000000000000000618100006A
S11380300000000000000000618100006181000078
S113804061810000618100006181000061810000A4
S11380506181000061810000618100006181000094
S11380606181000061810000618100006181000084
S11380706181000061810000618100006181000074
S11380806181000061810000618100006181000064
S11380906181000061810000618100006181000054
S11380A06181000061810000618100006181000044
S11380B06181000061810000618100006181000034
S11380C06181000061810000618100006181000024
S11380D06181000061810000618100006181000014
S11380E06181000061810000618100006181000004
S11380F06181000010B542F20004C2F2000423784A
S113810063B940F20003C0F200032BB148F2A82087
S1138110C0F2000000E000BF0123237010BDC04680
S113812040F20003C0F2000310B54BB142F2040167
S113813048F2A820C2F20001C0F2000000E000BF33
S113814048F2A820C0F20000036803B910BD40F251
S11381500003C0F20003002BF8D09847F6E7C046AE
S1138160FEE7000010B548F2A822C0F2000242F275
S11381700003C2F200039A4220D01A0042F2000324
S1138180C2F200039A4219D242F20003C2F200037F
S11381900333244A9B1A9B0801339B00002242F2BA
S11381A00001C2F20001511848F2A820C0F20000F8
S11381B010180068086004329A42F0D142F20002BA
S11381C0C2F2000242F21C03C2F200039A4213D22A
S11381D042F20002C2F20002D34342F21C01C2F294
S11381E000018C46634403218B4304339446634467
S11381F0002102C29342FCD148F20003C0F2000302
S11382007F2293434EF60052CEF20002936048F26E
S11382103923C0F20003984748F22923C0F200032F
S11382209847FEE70420002010B547F60143C0F24A
S113823000039847FEE7000070B500250E4B0F4C75
S1138240E41AA410A54209D1002500F01DF80C4C35
S11382500C4BE41AA410A54207D170BD064AAB002A
S11382609B181B6898470135ECE7064AAB009B183E
S11382701B6898470135EEE7948200009482000061
S11382809882000094820000F8B5C046F8BC08BC8F
S11382909E46704721810000F8B5C046F8BC08BC72
S10B82A09E467047F5800000C2
S90380007C
