:1000000020060020A5010000A1010000A1010000C0
:1000100000000000000000000000000000000000E0
:10002000000000000000000000000000A10100002E
:100030000000000000000000A1010000A10100007C
:10004000A1010000A1010000A1010000A101000028
:10005000A1010000A1010000A1010000A101000018
:10006000A1010000A1010000A1010000A101000008
:10007000A1010000A1010000A1010000A1010000F8
:10008000A1010000A1010000A1010000A1010000E8
:10009000A1010000A1010000A1010000A1010000D8
:1000A000A1010000A1010000A1010000A1010000C8
:1000B000A1010000A1010000A1010000A1010000B8
:1000C000A1010000A1010000A1010000A1010000A8
:1000D000A1010000A1010000A1010000A101000098
:1000E000A1010000A1010000A1010000A101000088
:1000F000A101000010B540F2AD23C0F20003984703
:10010000010002000300844610BC02BC864681F355
:1001100000880C4710B540F2B123C0F200039847A5
:10012000010002000300844610BC02BC864681F335
:1001300000880C4710B540F20404C2F20004237892
:1001400063B940F20003C0F200032BB144F21C007B
:10015000C0F2800000E000BF0123237010BDC04644
:1001600040F20003C0F2000310B54BB140F20801A9
:1001700044F21C00C2F20001C0F2800000E000BFA7
:1001800044F21C00C0F28000036803B910BD40F2C5
:100190000003C0F20003002BF8D09847F6E7C046F2
:1001A000FEE7000010B540F25832C0F2000240F203
:1001B0000003C2F200039A4220D01A0040F2040366
:1001C000C2F200039A4219D240F20403C2F20003C1
:1001D0000333244A9B1A9B0801339B00002240F200
:1001E0000001C2F20001511840F25830C0F2000084
:1001F00010180068086004329A42F0D140F20402FC
:10020000C2F2000240F22003C2F200039A4213D26B
:1002100040F20402C2F20002D34340F22001C2F2D3
:1002200000018C46634403218B43043394466344AA
:10023000002102C29342FCD140F20003C0F200034D
:100240007F2293434EF60052CEF20002936040F2BA
:10025000E923C0F20003984740F27D23C0F2000377
:100260009847FEE70400002040F20003C2F20003BA
:1002700040F60012C0F23D021A60704710B540F21D
:100280006923C0F20003984748F200031B6883F318
:10029000888848F204031C68640864002000210078
:1002A0002200230000F006F8C046FDE70330704747
:1002B00002387047E0B545464E465746E0B45D46C5
:1002C00020B4254626462746A046A146A246A34678
:1002D000A44684F30088A44720BCAB46E0BCBA46E1
:1002E000B146A846E0BD000070B500250E4B0F4C8E
:1002F000E41AA410A54209D1002500F01DF80C4C09
:100300000C4BE41AA410A54207D170BD064AAB00FD
:100310009B181B6898470135ECE7064AAB009B1811
:100320001B6898470135EEE74403000044030000D2
:100330004803000044030000F8B5C046F8BC08BC00
:100340009E46704761010000F8B5C046F8BC08BC85
:080350009E46704735010000D4
:0403580000093D005B
:107C00007FE97FE9F8F786BA7FE97FE9F8F772BA8A
:107C10000000000000000000000000000000000064
:0200000400807A
:104000007F438FB0BBF8FFFF80200840FFFFFFFF1A
:0C401000000000000000000000000000A4
:00000001FF
