:100000002006002089010000850100008501000014
:1000100000000000000000000000000000000000E0
:10002000000000000000000000000000850100004A
:1000300000000000000000008501000085010000B4
:100040008501000085010000850100008501000098
:100050008501000085010000850100008501000088
:100060008501000085010000850100008501000078
:100070008501000085010000850100008501000068
:100080008501000085010000850100008501000058
:100090008501000085010000850100008501000048
:1000A0008501000085010000850100008501000038
:1000B0008501000085010000850100008501000028
:1000C0008501000085010000850100008501000018
:1000D0008501000085010000850100008501000008
:1000E00085010000850100008501000085010000F8
:1000F0008501000010B540F29123C0F2000398473B
:100100000020010002000300844610BC01BC8646AA
:1001100080F300880447000010B540F20404C2F2E6
:100120000004237863B940F20003C0F200032BB14E
:1001300044F21C00C0F2800000E000BF01232370E5
:1001400010BDC04640F20003C0F2000310B54BB131
:1001500040F2080144F21C00C2F20001C0F280002B
:1001600000E000BF44F21C00C0F28000036803B945
:1001700010BD40F20003C0F20003002BF8D09847F6
:10018000F6E7C046FEE7000010B540F24032C0F28C
:10019000000240F20003C2F200039A4220D01A008B
:1001A00040F20403C2F200039A4219D240F204035F
:1001B000C2F200030333244A9B1A9B0801339B00BD
:1001C000002240F20001C2F20001511840F240301A
:1001D000C0F2000010180068086004329A42F0D1A2
:1001E00040F20402C2F2000240F22003C2F2000315
:1001F0009A4213D240F20402C2F20002D34340F208
:100200002001C2F200018C46634403218B43043376
:1002100094466344002102C29342FCD140F20003A1
:10022000C0F200037F2293434EF60052CEF200024A
:10023000936040F2D123C0F20003984740F261235B
:10024000C0F200039847FEE70400002040F20003DC
:10025000C2F2000340F60012C0F23D021A6070477D
:1002600010B540F24D23C0F20003984748F2000356
:100270001B6883F3888848F204031C6864086400E0
:10028000200021002200230000F009F8C046FDE70D
:1002900040F20023C6F200038022DA617047E0B525
:1002A00045464E465746E0B45D4620B425462646B0
:1002B0002746A046A146A246A346A44684F300884A
:1002C000A44720BCAB46E0BCBA46B146A846E0BD58
:1002D00070B500250E4B0F4CE41AA410A54209D1AD
:1002E000002500F01DF80C4C0C4BE41AA410A5429C
:1002F00007D170BD064AAB009B181B6898470135B3
:10030000ECE7064AAB009B181B6898470135EEE7FF
:100310002C0300002C030000300300002C0300001D
:10032000F8B5C046F8BC08BC9E46704745010000C1
:10033000F8B5C046F8BC08BC9E46704719010000DD
:0403400000093D0073
:107C00007FE97FE9F8F776BA000000000000000085
:107C10000000000000000000000000000000000064
:0200000400807A
:104000007F438FB0BBF8FFFF80200840FFFFFFFF1A
:0C401000000000000000000000000000A4
:00000001FF
