:1000000020060020D5010000D1010000D101000030
:1000100000000000000000000000000000000000E0
:10002000000000000000000000000000D1010000FE
:100030000000000000000000D1010000D10100001C
:10004000D1010000D1010000D1010000D101000068
:10005000D1010000D1010000D1010000D101000058
:10006000D1010000D1010000D1010000D101000048
:10007000D1010000D1010000D1010000D101000038
:10008000D1010000D1010000D1010000D101000028
:10009000D1010000D1010000D1010000D101000018
:1000A000D1010000D1010000D1010000D101000008
:1000B000D1010000D1010000D1010000D1010000F8
:1000C000D1010000D1010000D1010000D1010000E8
:1000D000D1010000D1010000D1010000D1010000D8
:1000E000D1010000D1010000D1010000D1010000C8
:1000F000D101000010B540F25133C0F2000398471F
:100100000020010002000300844610BC01BC8646AA
:1001100080F30088044710B540F25F33C0F200035B
:100120009847010002000300844610BC02BC8646CA
:1001300081F300880C47000010B540F20004C2F2C1
:100140000004237863B940F20003C0F200032BB12E
:1001500044F21C00C0F2800000E000BF01232370C5
:1001600010BDC04640F20003C0F2000310B54BB111
:1001700040F2040144F21C00C2F20001C0F280000F
:1001800000E000BF44F21C00C0F28000036803B925
:1001900010BD40F20003C0F20003002BF8D09847D6
:1001A000F6E7C04610B540F2AF23C0F2000398470F
:1001B00043F20023C4F200030022DA664EF2001379
:1001C000CEF2000340F280215A5004315A5010BD43
:1001D000FEE7000010B540F24052C0F2000240F2CB
:1001E0000003C2F200039A4220D01A0040F200033A
:1001F000C2F200039A4219D240F20003C2F2000395
:100200000333244A9B1A9B0801339B00002240F2CF
:100210000001C2F20001511840F24050C0F200004B
:1002200010180068086004329A42F0D140F20002CF
:10023000C2F2000240F22003C2F200039A4213D23B
:1002400040F20002C2F20002D34340F22001C2F2A7
:1002500000018C46634403218B430433944663447A
:10026000002102C29342FCD140F20003C0F200031D
:100270007F2293434EF60052CEF20002936040F28A
:10028000D143C0F20003984740F22133C0F200038B
:100290009847FEE70400002010B54EF21000CEF2A1
:1002A000000040F24343C0F20003984710BD70B510
:1002B00040F26333C0F20003984740F20022C6F2D6
:1002C000000280235361936043F20023C4F20003D1
:1002D0008021C4F200019962C02109069962472079
:1002E000195C0125A94319548020000550600021A4
:1002F000C4F20201996240F60001CCF20201996257
:1003000050605B215C5C042634435C5490615A5C11
:10031000AA435A5440F29923C0F20003984770BD93
:1003200010B540F2A513C0F20003984748F200034D
:100330001B6883F3888848F204031C68640864001F
:10034000200021002200230000F0A8F8C046FDE7AD
:1003500040F20023C6F200038022DA6170470330C6
:10036000704710B544F20003C4F200135A685A6093
:10037000002040F20943C0F20003984740F2C13325
:10038000C0F20003984740F2D933C0F20003984707
:1003900040F2B333C0F20003984740F20743C0F283
:1003A000000398471F2040F25B43C0F200039847C8
:1003B00010BD40F60003C4F2000301221A71704719
:1003C00041F20043C4F20003DA6941F600710A40C9
:1003D000DA6100221A74704741F20003C4F200038C
:1003E00002221A7641F20002C4F2000210211369BF
:1003F0001942FCD041F20003C4F200031A7E8021AE
:100400000A431A767047704740F20043C4F2000373
:100410009B7803221340984212D040F20042C4F26B
:100420000002FF239371937803218B430840184304
:10043000907040F20042C4F200029379002BFCD08D
:10044000704710B540F21C03C2F20003186040F27E
:100450008543C0F20003984710BDC30710D541F68D
:100460000043C4F2000340F20512C0F201021A6216
:1004700041F60042C4F200027D2153681942FCD1CA
:10048000704700004EF21003CEF20003024A5A6099
:1004900005221A607047C046FFFFFF00E0B54546E1
:1004A0004E465746E0B45D4620B4254626462746CC
:1004B000A046A146A246A346A44684F30088A447CA
:1004C00020BCAB46E0BCBA46B146A846E0BD000041
:1004D00070B500250E4B0F4CE41AA410A54209D1AB
:1004E000002500F01DF80C4C0C4BE41AA410A5429A
:1004F00007D170BD064AAB009B181B6898470135B1
:10050000ECE7064AAB009B181B6898470135EEE7FD
:100510002C0500002C050000300500002C05000013
:10052000F8B5C046F8BC08BC9E467047650100009F
:10053000F8B5C046F8BC08BC9E46704739010000BB
:107C00007FE97FE9F8F787BA7FE97FE9F8F772BA89
:107C10000000000000000000000000000000000064
:0200000400807A
:104000007F438FB0BBF8FFFF80200840FFFFFFFF1A
:0C401000000000000000000000000000A4
:00000001FF
